{
  "contractName": "NFTwarranty",
  "abi": [
    {
      "inputs": [],
      "stateMutability": "nonpayable",
      "type": "constructor"
    },
    {
      "anonymous": false,
      "inputs": [
        {
          "indexed": true,
          "internalType": "address",
          "name": "owner",
          "type": "address"
        },
        {
          "indexed": true,
          "internalType": "address",
          "name": "approved",
          "type": "address"
        },
        {
          "indexed": true,
          "internalType": "uint256",
          "name": "tokenId",
          "type": "uint256"
        }
      ],
      "name": "Approval",
      "type": "event"
    },
    {
      "anonymous": false,
      "inputs": [
        {
          "indexed": true,
          "internalType": "address",
          "name": "owner",
          "type": "address"
        },
        {
          "indexed": true,
          "internalType": "address",
          "name": "operator",
          "type": "address"
        },
        {
          "indexed": false,
          "internalType": "bool",
          "name": "approved",
          "type": "bool"
        }
      ],
      "name": "ApprovalForAll",
      "type": "event"
    },
    {
      "anonymous": false,
      "inputs": [
        {
          "indexed": true,
          "internalType": "address",
          "name": "previousOwner",
          "type": "address"
        },
        {
          "indexed": true,
          "internalType": "address",
          "name": "newOwner",
          "type": "address"
        }
      ],
      "name": "OwnershipTransferred",
      "type": "event"
    },
    {
      "anonymous": false,
      "inputs": [
        {
          "indexed": false,
          "internalType": "address",
          "name": "account",
          "type": "address"
        }
      ],
      "name": "Paused",
      "type": "event"
    },
    {
      "anonymous": false,
      "inputs": [
        {
          "indexed": true,
          "internalType": "address",
          "name": "from",
          "type": "address"
        },
        {
          "indexed": true,
          "internalType": "address",
          "name": "to",
          "type": "address"
        },
        {
          "indexed": true,
          "internalType": "uint256",
          "name": "tokenId",
          "type": "uint256"
        }
      ],
      "name": "Transfer",
      "type": "event"
    },
    {
      "anonymous": false,
      "inputs": [
        {
          "indexed": false,
          "internalType": "address",
          "name": "account",
          "type": "address"
        }
      ],
      "name": "Unpaused",
      "type": "event"
    },
    {
      "anonymous": false,
      "inputs": [
        {
          "components": [
            {
              "internalType": "uint256",
              "name": "tokenId",
              "type": "uint256"
            },
            {
              "internalType": "address",
              "name": "owner",
              "type": "address"
            },
            {
              "internalType": "uint256",
              "name": "_start",
              "type": "uint256"
            },
            {
              "internalType": "uint256",
              "name": "warranty_count",
              "type": "uint256"
            }
          ],
          "indexed": false,
          "internalType": "struct NFTwarranty.NFTtoken",
          "name": "nfts",
          "type": "tuple"
        }
      ],
      "name": "display",
      "type": "event"
    },
    {
      "anonymous": false,
      "inputs": [
        {
          "indexed": false,
          "internalType": "string",
          "name": "st",
          "type": "string"
        }
      ],
      "name": "print_string",
      "type": "event"
    },
    {
      "inputs": [
        {
          "internalType": "address",
          "name": "to",
          "type": "address"
        },
        {
          "internalType": "uint256",
          "name": "tokenId",
          "type": "uint256"
        }
      ],
      "name": "approve",
      "outputs": [],
      "stateMutability": "nonpayable",
      "type": "function"
    },
    {
      "inputs": [
        {
          "internalType": "address",
          "name": "owner",
          "type": "address"
        }
      ],
      "name": "balanceOf",
      "outputs": [
        {
          "internalType": "uint256",
          "name": "",
          "type": "uint256"
        }
      ],
      "stateMutability": "view",
      "type": "function"
    },
    {
      "inputs": [
        {
          "internalType": "uint256",
          "name": "tokenId",
          "type": "uint256"
        }
      ],
      "name": "burn",
      "outputs": [],
      "stateMutability": "nonpayable",
      "type": "function"
    },
    {
      "inputs": [
        {
          "internalType": "uint256",
          "name": "tokenId",
          "type": "uint256"
        }
      ],
      "name": "getApproved",
      "outputs": [
        {
          "internalType": "address",
          "name": "",
          "type": "address"
        }
      ],
      "stateMutability": "view",
      "type": "function"
    },
    {
      "inputs": [
        {
          "internalType": "address",
          "name": "owner",
          "type": "address"
        },
        {
          "internalType": "address",
          "name": "operator",
          "type": "address"
        }
      ],
      "name": "isApprovedForAll",
      "outputs": [
        {
          "internalType": "bool",
          "name": "",
          "type": "bool"
        }
      ],
      "stateMutability": "view",
      "type": "function"
    },
    {
      "inputs": [],
      "name": "name",
      "outputs": [
        {
          "internalType": "string",
          "name": "",
          "type": "string"
        }
      ],
      "stateMutability": "view",
      "type": "function"
    },
    {
      "inputs": [
        {
          "internalType": "uint256",
          "name": "",
          "type": "uint256"
        }
      ],
      "name": "nft_array",
      "outputs": [
        {
          "internalType": "uint256",
          "name": "tokenId",
          "type": "uint256"
        },
        {
          "internalType": "address",
          "name": "owner",
          "type": "address"
        },
        {
          "internalType": "uint256",
          "name": "_start",
          "type": "uint256"
        },
        {
          "internalType": "uint256",
          "name": "warranty_count",
          "type": "uint256"
        }
      ],
      "stateMutability": "view",
      "type": "function"
    },
    {
      "inputs": [],
      "name": "owner",
      "outputs": [
        {
          "internalType": "address",
          "name": "",
          "type": "address"
        }
      ],
      "stateMutability": "view",
      "type": "function"
    },
    {
      "inputs": [
        {
          "internalType": "uint256",
          "name": "tokenId",
          "type": "uint256"
        }
      ],
      "name": "ownerOf",
      "outputs": [
        {
          "internalType": "address",
          "name": "",
          "type": "address"
        }
      ],
      "stateMutability": "view",
      "type": "function"
    },
    {
      "inputs": [],
      "name": "paused",
      "outputs": [
        {
          "internalType": "bool",
          "name": "",
          "type": "bool"
        }
      ],
      "stateMutability": "view",
      "type": "function"
    },
    {
      "inputs": [],
      "name": "renounceOwnership",
      "outputs": [],
      "stateMutability": "nonpayable",
      "type": "function"
    },
    {
      "inputs": [
        {
          "internalType": "address",
          "name": "operator",
          "type": "address"
        },
        {
          "internalType": "bool",
          "name": "approved",
          "type": "bool"
        }
      ],
      "name": "setApprovalForAll",
      "outputs": [],
      "stateMutability": "nonpayable",
      "type": "function"
    },
    {
      "inputs": [],
      "name": "symbol",
      "outputs": [
        {
          "internalType": "string",
          "name": "",
          "type": "string"
        }
      ],
      "stateMutability": "view",
      "type": "function"
    },
    {
      "inputs": [
        {
          "internalType": "uint256",
          "name": "index",
          "type": "uint256"
        }
      ],
      "name": "tokenByIndex",
      "outputs": [
        {
          "internalType": "uint256",
          "name": "",
          "type": "uint256"
        }
      ],
      "stateMutability": "view",
      "type": "function"
    },
    {
      "inputs": [
        {
          "internalType": "address",
          "name": "owner",
          "type": "address"
        },
        {
          "internalType": "uint256",
          "name": "index",
          "type": "uint256"
        }
      ],
      "name": "tokenOfOwnerByIndex",
      "outputs": [
        {
          "internalType": "uint256",
          "name": "",
          "type": "uint256"
        }
      ],
      "stateMutability": "view",
      "type": "function"
    },
    {
      "inputs": [],
      "name": "totalSupply",
      "outputs": [
        {
          "internalType": "uint256",
          "name": "",
          "type": "uint256"
        }
      ],
      "stateMutability": "view",
      "type": "function"
    },
    {
      "inputs": [
        {
          "internalType": "address",
          "name": "from",
          "type": "address"
        },
        {
          "internalType": "address",
          "name": "to",
          "type": "address"
        },
        {
          "internalType": "uint256",
          "name": "tokenId",
          "type": "uint256"
        }
      ],
      "name": "transferFrom",
      "outputs": [],
      "stateMutability": "nonpayable",
      "type": "function"
    },
    {
      "inputs": [
        {
          "internalType": "address",
          "name": "newOwner",
          "type": "address"
        }
      ],
      "name": "transferOwnership",
      "outputs": [],
      "stateMutability": "nonpayable",
      "type": "function"
    },
    {
      "inputs": [
        {
          "internalType": "address",
          "name": "to",
          "type": "address"
        }
      ],
      "name": "safeMint",
      "outputs": [],
      "stateMutability": "nonpayable",
      "type": "function"
    },
    {
      "inputs": [],
      "name": "pause",
      "outputs": [],
      "stateMutability": "nonpayable",
      "type": "function"
    },
    {
      "inputs": [],
      "name": "unpause",
      "outputs": [],
      "stateMutability": "nonpayable",
      "type": "function"
    },
    {
      "inputs": [
        {
          "internalType": "uint256",
          "name": "tokenId",
          "type": "uint256"
        }
      ],
      "name": "tokenURI",
      "outputs": [
        {
          "internalType": "string",
          "name": "",
          "type": "string"
        }
      ],
      "stateMutability": "view",
      "type": "function"
    },
    {
      "inputs": [
        {
          "internalType": "bytes4",
          "name": "interfaceId",
          "type": "bytes4"
        }
      ],
      "name": "supportsInterface",
      "outputs": [
        {
          "internalType": "bool",
          "name": "",
          "type": "bool"
        }
      ],
      "stateMutability": "view",
      "type": "function"
    },
    {
      "inputs": [
        {
          "internalType": "address",
          "name": "_to",
          "type": "address"
        },
        {
          "internalType": "string",
          "name": "tokenURI_",
          "type": "string"
        }
      ],
      "name": "mint",
      "outputs": [],
      "stateMutability": "nonpayable",
      "type": "function"
    },
    {
      "inputs": [
        {
          "internalType": "address",
          "name": "_from",
          "type": "address"
        },
        {
          "internalType": "address",
          "name": "_to",
          "type": "address"
        },
        {
          "internalType": "uint256",
          "name": "_tokenId",
          "type": "uint256"
        }
      ],
      "name": "safeTransferFrom",
      "outputs": [],
      "stateMutability": "nonpayable",
      "type": "function"
    },
    {
      "inputs": [
        {
          "internalType": "address",
          "name": "from",
          "type": "address"
        },
        {
          "internalType": "address",
          "name": "to",
          "type": "address"
        },
        {
          "internalType": "uint256",
          "name": "tokenId",
          "type": "uint256"
        },
        {
          "internalType": "bytes",
          "name": "data",
          "type": "bytes"
        }
      ],
      "name": "safeTransferFrom",
      "outputs": [],
      "stateMutability": "nonpayable",
      "type": "function"
    },
    {
      "inputs": [
        {
          "internalType": "uint256",
          "name": "tokenId",
          "type": "uint256"
        }
      ],
      "name": "checkTime",
      "outputs": [],
      "stateMutability": "nonpayable",
      "type": "function"
    },
    {
      "inputs": [
        {
          "internalType": "uint256",
          "name": "tokenId",
          "type": "uint256"
        }
      ],
      "name": "give_award",
      "outputs": [],
      "stateMutability": "nonpayable",
      "type": "function"
    }
  ],
  "bytecode": "0x60806040523480156200001157600080fd5b506040518060400160405280600c81526020017f4e46542057617272616e747900000000000000000000000000000000000000008152506040518060400160405280600481526020017f774e465400000000000000000000000000000000000000000000000000000000815250816000908051906020019062000096929190620001c1565b508060019080519060200190620000af929190620001c1565b5050506000600b60006101000a81548160ff021916908315150217905550620000ed620000e1620000f360201b60201c565b620000fb60201b60201c565b620002d6565b600033905090565b6000600b60019054906101000a900473ffffffffffffffffffffffffffffffffffffffff16905081600b60016101000a81548173ffffffffffffffffffffffffffffffffffffffff021916908373ffffffffffffffffffffffffffffffffffffffff1602179055508173ffffffffffffffffffffffffffffffffffffffff168173ffffffffffffffffffffffffffffffffffffffff167f8be0079c531659141344cd1fd0a4f28419497f9722a3daafe3b4186f6b6457e060405160405180910390a35050565b828054620001cf9062000271565b90600052602060002090601f016020900481019282620001f357600085556200023f565b82601f106200020e57805160ff19168380011785556200023f565b828001600101855582156200023f579182015b828111156200023e57825182559160200191906001019062000221565b5b5090506200024e919062000252565b5090565b5b808211156200026d57600081600090555060010162000253565b5090565b600060028204905060018216806200028a57607f821691505b60208210811415620002a157620002a0620002a7565b5b50919050565b7f4e487b7100000000000000000000000000000000000000000000000000000000600052602260045260246000fd5b61498a80620002e66000396000f3fe608060405234801561001057600080fd5b50600436106101c45760003560e01c80636352211e116100f9578063a22cb46511610097578063c87b56dd11610071578063c87b56dd146104cc578063d0def521146104fc578063e985e9c514610518578063f2fde38b14610548576101c4565b8063a22cb46514610461578063b88d4fde1461047d578063bff324b414610499576101c4565b80638456cb59116100d35780638456cb59146103ff5780638da5cb5b1461040957806390367a3c1461042757806395d89b4114610443576101c4565b80636352211e1461039557806370a08231146103c5578063715018a6146103f5576101c4565b80633f4ba83a1161016657806342966c681161014057806342966c681461030f5780634f6ccce71461032b5780635c975abb1461035b57806361841cd614610379576101c4565b80633f4ba83a146102cd57806340d097c3146102d757806342842e0e146102f3576101c4565b8063095ea7b3116101a2578063095ea7b31461024757806318160ddd1461026357806323b872dd146102815780632f745c591461029d576101c4565b806301ffc9a7146101c957806306fdde03146101f9578063081812fc14610217575b600080fd5b6101e360048036038101906101de9190613395565b610564565b6040516101f091906139e0565b60405180910390f35b610201610576565b60405161020e91906139fb565b60405180910390f35b610231600480360381019061022c91906133e7565b610608565b60405161023e9190613979565b60405180910390f35b610261600480360381019061025c9190613359565b61064e565b005b61026b610766565b6040516102789190613db8565b60405180910390f35b61029b600480360381019061029691906131ff565b610773565b005b6102b760048036038101906102b29190613359565b6107d3565b6040516102c49190613db8565b60405180910390f35b6102d5610878565b005b6102f160048036038101906102ec919061319a565b61088a565b005b61030d600480360381019061030891906131ff565b6108b2565b005b610329600480360381019061032491906133e7565b61098b565b005b610345600480360381019061034091906133e7565b6109e7565b6040516103529190613db8565b60405180910390f35b610363610a7e565b60405161037091906139e0565b60405180910390f35b610393600480360381019061038e91906133e7565b610a95565b005b6103af60048036038101906103aa91906133e7565b610c42565b6040516103bc9190613979565b60405180910390f35b6103df60048036038101906103da919061319a565b610cf4565b6040516103ec9190613db8565b60405180910390f35b6103fd610dac565b005b610407610dc0565b005b610411610dd2565b60405161041e9190613979565b60405180910390f35b610441600480360381019061043c91906133e7565b610dfc565b005b61044b6110ce565b60405161045891906139fb565b60405180910390f35b61047b600480360381019061047691906132c9565b611160565b005b6104976004803603810190610492919061324e565b611176565b005b6104b360048036038101906104ae91906133e7565b6111d8565b6040516104c39493929190613dd3565b60405180910390f35b6104e660048036038101906104e191906133e7565b611238565b6040516104f391906139fb565b60405180910390f35b61051660048036038101906105119190613305565b61124a565b005b610532600480360381019061052d91906131c3565b6113e0565b60405161053f91906139e0565b60405180910390f35b610562600480360381019061055d919061319a565b611474565b005b600061056f826114f8565b9050919050565b6060600080546105859061407d565b80601f01602080910402602001604051908101604052809291908181526020018280546105b19061407d565b80156105fe5780601f106105d3576101008083540402835291602001916105fe565b820191906000526020600020905b8154815290600101906020018083116105e157829003601f168201915b5050505050905090565b600061061382611572565b6004600083815260200190815260200160002060009054906101000a900473ffffffffffffffffffffffffffffffffffffffff169050919050565b600061065982610c42565b90508073ffffffffffffffffffffffffffffffffffffffff168373ffffffffffffffffffffffffffffffffffffffff1614156106ca576040517f08c379a00000000000000000000000000000000000000000000000000000000081526004016106c190613cfd565b60405180910390fd5b8073ffffffffffffffffffffffffffffffffffffffff166106e96115bd565b73ffffffffffffffffffffffffffffffffffffffff1614806107185750610717816107126115bd565b6113e0565b5b610757576040517f08c379a000000000000000000000000000000000000000000000000000000000815260040161074e90613c3d565b60405180910390fd5b61076183836115c5565b505050565b6000600880549050905090565b61078461077e6115bd565b8261167e565b6107c3576040517f08c379a00000000000000000000000000000000000000000000000000000000081526004016107ba90613d7d565b60405180910390fd5b6107ce838383611713565b505050565b60006107de83610cf4565b821061081f576040517f08c379a000000000000000000000000000000000000000000000000000000000815260040161081690613a5d565b60405180910390fd5b600660008473ffffffffffffffffffffffffffffffffffffffff1673ffffffffffffffffffffffffffffffffffffffff168152602001908152602001600020600083815260200190815260200160002054905092915050565b61088061197a565b6108886119f8565b565b61089261197a565b6108a5816108a0600c611a5b565b611a69565b6108af600c611a87565b50565b600073ffffffffffffffffffffffffffffffffffffffff168273ffffffffffffffffffffffffffffffffffffffff161415610922576040517f08c379a000000000000000000000000000000000000000000000000000000000815260040161091990613c9d565b60405180910390fd5b61092c838261167e565b61096b576040517f08c379a000000000000000000000000000000000000000000000000000000000815260040161096290613b5d565b60405180910390fd5b61098683838360405180602001604052806000815250611a9d565b505050565b61099c6109966115bd565b8261167e565b6109db576040517f08c379a00000000000000000000000000000000000000000000000000000000081526004016109d290613d7d565b60405180910390fd5b6109e481611af9565b50565b60006109f1610766565b8210610a32576040517f08c379a0000000000000000000000000000000000000000000000000000000008152600401610a2990613d3d565b60405180910390fd5b60088281548110610a6c577f4e487b7100000000000000000000000000000000000000000000000000000000600052603260045260246000fd5b90600052602060002001549050919050565b6000600b60009054906101000a900460ff16905090565b600a60368281548110610ad1577f4e487b7100000000000000000000000000000000000000000000000000000000600052603260045260246000fd5b906000526020600020906004020160020154610aed9190613ee2565b4210610b2d577fa5014519207066148cceb1209c0da9b5bc063b5c80fb25da53261714be79574b604051610b2090613bbd565b60405180910390a1610c0a565b600160368281548110610b69577f4e487b7100000000000000000000000000000000000000000000000000000000600052603260045260246000fd5b906000526020600020906004020160030154610b859190613ee2565b60368281548110610bbf577f4e487b7100000000000000000000000000000000000000000000000000000000600052603260045260246000fd5b9060005260206000209060040201600301819055507fa5014519207066148cceb1209c0da9b5bc063b5c80fb25da53261714be79574b604051610c0190613c1d565b60405180910390a15b7fa5014519207066148cceb1209c0da9b5bc063b5c80fb25da53261714be79574b604051610c3790613afd565b60405180910390a150565b6000806002600084815260200190815260200160002060009054906101000a900473ffffffffffffffffffffffffffffffffffffffff169050600073ffffffffffffffffffffffffffffffffffffffff168173ffffffffffffffffffffffffffffffffffffffff161415610ceb576040517f08c379a0000000000000000000000000000000000000000000000000000000008152600401610ce290613cbd565b60405180910390fd5b80915050919050565b60008073ffffffffffffffffffffffffffffffffffffffff168273ffffffffffffffffffffffffffffffffffffffff161415610d65576040517f08c379a0000000000000000000000000000000000000000000000000000000008152600401610d5c90613bdd565b60405180910390fd5b600360008373ffffffffffffffffffffffffffffffffffffffff1673ffffffffffffffffffffffffffffffffffffffff168152602001908152602001600020549050919050565b610db461197a565b610dbe6000611b05565b565b610dc861197a565b610dd0611bcb565b565b6000600b60019054906101000a900473ffffffffffffffffffffffffffffffffffffffff16905090565b600a60368281548110610e38577f4e487b7100000000000000000000000000000000000000000000000000000000600052603260045260246000fd5b906000526020600020906004020160020154610e549190613ee2565b421061109557600360368281548110610e96577f4e487b7100000000000000000000000000000000000000000000000000000000600052603260045260246000fd5b90600052602060002090600402016003015410610ee7577fa5014519207066148cceb1209c0da9b5bc063b5c80fb25da53261714be79574b604051610eda90613d1d565b60405180910390a1611090565b600060368281548110610f23577f4e487b7100000000000000000000000000000000000000000000000000000000600052603260045260246000fd5b9060005260206000209060040201600301541415610f75577fa5014519207066148cceb1209c0da9b5bc063b5c80fb25da53261714be79574b604051610f6890613d5d565b60405180910390a161108f565b600160368281548110610fb1577f4e487b7100000000000000000000000000000000000000000000000000000000600052603260045260246000fd5b9060005260206000209060040201600301541415611003577fa5014519207066148cceb1209c0da9b5bc063b5c80fb25da53261714be79574b604051610ff690613b7d565b60405180910390a161108e565b60026036828154811061103f577f4e487b7100000000000000000000000000000000000000000000000000000000600052603260045260246000fd5b906000526020600020906004020160030154141561108d577fa5014519207066148cceb1209c0da9b5bc063b5c80fb25da53261714be79574b60405161108490613cdd565b60405180910390a15b5b5b5b6110cb565b7fa5014519207066148cceb1209c0da9b5bc063b5c80fb25da53261714be79574b6040516110c290613a1d565b60405180910390a15b50565b6060600180546110dd9061407d565b80601f01602080910402602001604051908101604052809291908181526020018280546111099061407d565b80156111565780601f1061112b57610100808354040283529160200191611156565b820191906000526020600020905b81548152906001019060200180831161113957829003601f168201915b5050505050905090565b61117261116b6115bd565b8383611c2e565b5050565b6111876111816115bd565b8361167e565b6111c6576040517f08c379a00000000000000000000000000000000000000000000000000000000081526004016111bd90613d7d565b60405180910390fd5b6111d284848484611a9d565b50505050565b603681815481106111e857600080fd5b90600052602060002090600402016000915090508060000154908060010160009054906101000a900473ffffffffffffffffffffffffffffffffffffffff16908060020154908060030154905084565b606061124382611d9b565b9050919050565b61125261197a565b60366040518060800160405280611269600c611a5b565b81526020018473ffffffffffffffffffffffffffffffffffffffff168152602001428152602001600081525090806001815401808255809150506001900390600052602060002090600402016000909190919091506000820151816000015560208201518160010160006101000a81548173ffffffffffffffffffffffffffffffffffffffff021916908373ffffffffffffffffffffffffffffffffffffffff160217905550604082015181600201556060820151816003015550507fb23438cffc5b382957814859d4872aeba182f58ebcccd3987ee007a21dc19e906036611352600c611a5b565b81548110611389577f4e487b7100000000000000000000000000000000000000000000000000000000600052603260045260246000fd5b90600052602060002090600402016040516113a49190613d9d565b60405180910390a16113bf826113ba600c611a5b565b611a69565b6113d26113cc600c611a5b565b82611eae565b6113dc600c611a87565b5050565b6000600560008473ffffffffffffffffffffffffffffffffffffffff1673ffffffffffffffffffffffffffffffffffffffff16815260200190815260200160002060008373ffffffffffffffffffffffffffffffffffffffff1673ffffffffffffffffffffffffffffffffffffffff16815260200190815260200160002060009054906101000a900460ff16905092915050565b61147c61197a565b600073ffffffffffffffffffffffffffffffffffffffff168173ffffffffffffffffffffffffffffffffffffffff1614156114ec576040517f08c379a00000000000000000000000000000000000000000000000000000000081526004016114e390613a9d565b60405180910390fd5b6114f581611b05565b50565b60007f780e9d63000000000000000000000000000000000000000000000000000000007bffffffffffffffffffffffffffffffffffffffffffffffffffffffff1916827bffffffffffffffffffffffffffffffffffffffffffffffffffffffff1916148061156b575061156a82611f22565b5b9050919050565b61157b81612004565b6115ba576040517f08c379a00000000000000000000000000000000000000000000000000000000081526004016115b190613cbd565b60405180910390fd5b50565b600033905090565b816004600083815260200190815260200160002060006101000a81548173ffffffffffffffffffffffffffffffffffffffff021916908373ffffffffffffffffffffffffffffffffffffffff160217905550808273ffffffffffffffffffffffffffffffffffffffff1661163883610c42565b73ffffffffffffffffffffffffffffffffffffffff167f8c5be1e5ebec7d5bd14f71427d1e84f3dd0314c0f7b2291e5b200ac8c7c3b92560405160405180910390a45050565b60008061168a83610c42565b90508073ffffffffffffffffffffffffffffffffffffffff168473ffffffffffffffffffffffffffffffffffffffff1614806116cc57506116cb81856113e0565b5b8061170a57508373ffffffffffffffffffffffffffffffffffffffff166116f284610608565b73ffffffffffffffffffffffffffffffffffffffff16145b91505092915050565b8273ffffffffffffffffffffffffffffffffffffffff1661173382610c42565b73ffffffffffffffffffffffffffffffffffffffff1614611789576040517f08c379a000000000000000000000000000000000000000000000000000000000815260040161178090613abd565b60405180910390fd5b600073ffffffffffffffffffffffffffffffffffffffff168273ffffffffffffffffffffffffffffffffffffffff1614156117f9576040517f08c379a00000000000000000000000000000000000000000000000000000000081526004016117f090613b1d565b60405180910390fd5b611804838383612070565b61180f6000826115c5565b6001600360008573ffffffffffffffffffffffffffffffffffffffff1673ffffffffffffffffffffffffffffffffffffffff168152602001908152602001600020600082825461185f9190613f69565b925050819055506001600360008473ffffffffffffffffffffffffffffffffffffffff1673ffffffffffffffffffffffffffffffffffffffff16815260200190815260200160002060008282546118b69190613ee2565b92505081905550816002600083815260200190815260200160002060006101000a81548173ffffffffffffffffffffffffffffffffffffffff021916908373ffffffffffffffffffffffffffffffffffffffff160217905550808273ffffffffffffffffffffffffffffffffffffffff168473ffffffffffffffffffffffffffffffffffffffff167fddf252ad1be2c89b69c2b068fc378daa952ba7f163c4a11628f55a4df523b3ef60405160405180910390a461197583838361220c565b505050565b6119826115bd565b73ffffffffffffffffffffffffffffffffffffffff166119a0610dd2565b73ffffffffffffffffffffffffffffffffffffffff16146119f6576040517f08c379a00000000000000000000000000000000000000000000000000000000081526004016119ed90613c7d565b60405180910390fd5b565b611a00612211565b6000600b60006101000a81548160ff0219169083151502179055507f5db9ee0a495bf2e6ff9c91a7834c1ba4fdd244a5e8aa4e537bd38aeae4b073aa611a446115bd565b604051611a519190613979565b60405180910390a1565b600081600001549050919050565b611a8382826040518060200160405280600081525061225a565b5050565b6001816000016000828254019250508190555050565b611aa8848484611713565b611ab4848484846122b5565b611af3576040517f08c379a0000000000000000000000000000000000000000000000000000000008152600401611aea90613a7d565b60405180910390fd5b50505050565b611b028161244c565b50565b6000600b60019054906101000a900473ffffffffffffffffffffffffffffffffffffffff16905081600b60016101000a81548173ffffffffffffffffffffffffffffffffffffffff021916908373ffffffffffffffffffffffffffffffffffffffff1602179055508173ffffffffffffffffffffffffffffffffffffffff168173ffffffffffffffffffffffffffffffffffffffff167f8be0079c531659141344cd1fd0a4f28419497f9722a3daafe3b4186f6b6457e060405160405180910390a35050565b611bd361249f565b6001600b60006101000a81548160ff0219169083151502179055507f62e78cea01bee320cd4e420270b5ea74000d11b0c9f74754ebdbfc544b05a258611c176115bd565b604051611c249190613979565b60405180910390a1565b8173ffffffffffffffffffffffffffffffffffffffff168373ffffffffffffffffffffffffffffffffffffffff161415611c9d576040517f08c379a0000000000000000000000000000000000000000000000000000000008152600401611c9490613b3d565b60405180910390fd5b80600560008573ffffffffffffffffffffffffffffffffffffffff1673ffffffffffffffffffffffffffffffffffffffff16815260200190815260200160002060008473ffffffffffffffffffffffffffffffffffffffff1673ffffffffffffffffffffffffffffffffffffffff16815260200190815260200160002060006101000a81548160ff0219169083151502179055508173ffffffffffffffffffffffffffffffffffffffff168373ffffffffffffffffffffffffffffffffffffffff167f17307eab39ab6107e8899845ad3d59bd9653f200f220920489ca2b5937696c3183604051611d8e91906139e0565b60405180910390a3505050565b6060611da682611572565b6000600a60008481526020019081526020016000208054611dc69061407d565b80601f0160208091040260200160405190810160405280929190818152602001828054611df29061407d565b8015611e3f5780601f10611e1457610100808354040283529160200191611e3f565b820191906000526020600020905b815481529060010190602001808311611e2257829003601f168201915b505050505090506000611e506124e9565b9050600081511415611e66578192505050611ea9565b600082511115611e9b578082604051602001611e83929190613955565b60405160208183030381529060405292505050611ea9565b611ea484612500565b925050505b919050565b611eb782612004565b611ef6576040517f08c379a0000000000000000000000000000000000000000000000000000000008152600401611eed90613bfd565b60405180910390fd5b80600a60008481526020019081526020016000209080519060200190611f1d929190612f2a565b505050565b60007f80ac58cd000000000000000000000000000000000000000000000000000000007bffffffffffffffffffffffffffffffffffffffffffffffffffffffff1916827bffffffffffffffffffffffffffffffffffffffffffffffffffffffff19161480611fed57507f5b5e139f000000000000000000000000000000000000000000000000000000007bffffffffffffffffffffffffffffffffffffffffffffffffffffffff1916827bffffffffffffffffffffffffffffffffffffffffffffffffffffffff1916145b80611ffd5750611ffc82612568565b5b9050919050565b60008073ffffffffffffffffffffffffffffffffffffffff166002600084815260200190815260200160002060009054906101000a900473ffffffffffffffffffffffffffffffffffffffff1673ffffffffffffffffffffffffffffffffffffffff1614159050919050565b61207861249f565b612080612fb0565b83816000019073ffffffffffffffffffffffffffffffffffffffff16908173ffffffffffffffffffffffffffffffffffffffff168152505082816020019073ffffffffffffffffffffffffffffffffffffffff16908173ffffffffffffffffffffffffffffffffffffffff1681525050428160600181815250508181604001818152505080600e612111600d611a5b565b600a8110612148577f4e487b7100000000000000000000000000000000000000000000000000000000600052603260045260246000fd5b6004020160008201518160000160006101000a81548173ffffffffffffffffffffffffffffffffffffffff021916908373ffffffffffffffffffffffffffffffffffffffff16021790555060208201518160010160006101000a81548173ffffffffffffffffffffffffffffffffffffffff021916908373ffffffffffffffffffffffffffffffffffffffff16021790555060408201518160020155606082015181600301559050506121fb600d611a87565b6122068484846125d2565b50505050565b505050565b612219610a7e565b612258576040517f08c379a000000000000000000000000000000000000000000000000000000000815260040161224f90613a3d565b60405180910390fd5b565b61226483836126e6565b61227160008484846122b5565b6122b0576040517f08c379a00000000000000000000000000000000000000000000000000000000081526004016122a790613a7d565b60405180910390fd5b505050565b60006122d68473ffffffffffffffffffffffffffffffffffffffff166128c0565b1561243f578373ffffffffffffffffffffffffffffffffffffffff1663150b7a026122ff6115bd565b8786866040518563ffffffff1660e01b81526004016123219493929190613994565b602060405180830381600087803b15801561233b57600080fd5b505af192505050801561236c57506040513d601f19601f8201168201806040525081019061236991906133be565b60015b6123ef573d806000811461239c576040519150601f19603f3d011682016040523d82523d6000602084013e6123a1565b606091505b506000815114156123e7576040517f08c379a00000000000000000000000000000000000000000000000000000000081526004016123de90613a7d565b60405180910390fd5b805181602001fd5b63150b7a0260e01b7bffffffffffffffffffffffffffffffffffffffffffffffffffffffff1916817bffffffffffffffffffffffffffffffffffffffffffffffffffffffff191614915050612444565b600190505b949350505050565b612455816128e3565b6000600a600083815260200190815260200160002080546124759061407d565b90501461249c57600a6000828152602001908152602001600020600061249b9190613004565b5b50565b6124a7610a7e565b156124e7576040517f08c379a00000000000000000000000000000000000000000000000000000000081526004016124de90613b9d565b60405180910390fd5b565b606060405180602001604052806000815250905090565b606061250b82611572565b60006125156124e9565b905060008151116125355760405180602001604052806000815250612560565b8061253f84612a00565b604051602001612550929190613955565b6040516020818303038152906040525b915050919050565b60007f01ffc9a7000000000000000000000000000000000000000000000000000000007bffffffffffffffffffffffffffffffffffffffffffffffffffffffff1916827bffffffffffffffffffffffffffffffffffffffffffffffffffffffff1916149050919050565b6125dd838383612bad565b600073ffffffffffffffffffffffffffffffffffffffff168373ffffffffffffffffffffffffffffffffffffffff1614156126205761261b81612bb2565b61265f565b8173ffffffffffffffffffffffffffffffffffffffff168373ffffffffffffffffffffffffffffffffffffffff161461265e5761265d8382612bfb565b5b5b600073ffffffffffffffffffffffffffffffffffffffff168273ffffffffffffffffffffffffffffffffffffffff1614156126a25761269d81612d68565b6126e1565b8273ffffffffffffffffffffffffffffffffffffffff168273ffffffffffffffffffffffffffffffffffffffff16146126e0576126df8282612eab565b5b5b505050565b600073ffffffffffffffffffffffffffffffffffffffff168273ffffffffffffffffffffffffffffffffffffffff161415612756576040517f08c379a000000000000000000000000000000000000000000000000000000000815260040161274d90613c5d565b60405180910390fd5b61275f81612004565b1561279f576040517f08c379a000000000000000000000000000000000000000000000000000000000815260040161279690613add565b60405180910390fd5b6127ab60008383612070565b6001600360008473ffffffffffffffffffffffffffffffffffffffff1673ffffffffffffffffffffffffffffffffffffffff16815260200190815260200160002060008282546127fb9190613ee2565b92505081905550816002600083815260200190815260200160002060006101000a81548173ffffffffffffffffffffffffffffffffffffffff021916908373ffffffffffffffffffffffffffffffffffffffff160217905550808273ffffffffffffffffffffffffffffffffffffffff16600073ffffffffffffffffffffffffffffffffffffffff167fddf252ad1be2c89b69c2b068fc378daa952ba7f163c4a11628f55a4df523b3ef60405160405180910390a46128bc6000838361220c565b5050565b6000808273ffffffffffffffffffffffffffffffffffffffff163b119050919050565b60006128ee82610c42565b90506128fc81600084612070565b6129076000836115c5565b6001600360008373ffffffffffffffffffffffffffffffffffffffff1673ffffffffffffffffffffffffffffffffffffffff16815260200190815260200160002060008282546129579190613f69565b925050819055506002600083815260200190815260200160002060006101000a81549073ffffffffffffffffffffffffffffffffffffffff021916905581600073ffffffffffffffffffffffffffffffffffffffff168273ffffffffffffffffffffffffffffffffffffffff167fddf252ad1be2c89b69c2b068fc378daa952ba7f163c4a11628f55a4df523b3ef60405160405180910390a46129fc8160008461220c565b5050565b60606000821415612a48576040518060400160405280600181526020017f30000000000000000000000000000000000000000000000000000000000000008152509050612ba8565b600082905060005b60008214612a7a578080612a6390614114565b915050600a82612a739190613f38565b9150612a50565b60008167ffffffffffffffff811115612abc577f4e487b7100000000000000000000000000000000000000000000000000000000600052604160045260246000fd5b6040519080825280601f01601f191660200182016040528015612aee5781602001600182028036833780820191505090505b5090505b60008514612ba157600182612b079190613f69565b9150600a85612b16919061415d565b6030612b229190613ee2565b60f81b818381518110612b5e577f4e487b7100000000000000000000000000000000000000000000000000000000600052603260045260246000fd5b60200101907effffffffffffffffffffffffffffffffffffffffffffffffffffffffffffff1916908160001a905350600a85612b9a9190613f38565b9450612af2565b8093505050505b919050565b505050565b6008805490506009600083815260200190815260200160002081905550600881908060018154018082558091505060019003906000526020600020016000909190919091505550565b60006001612c0884610cf4565b612c129190613f69565b9050600060076000848152602001908152602001600020549050818114612cf7576000600660008673ffffffffffffffffffffffffffffffffffffffff1673ffffffffffffffffffffffffffffffffffffffff168152602001908152602001600020600084815260200190815260200160002054905080600660008773ffffffffffffffffffffffffffffffffffffffff1673ffffffffffffffffffffffffffffffffffffffff168152602001908152602001600020600084815260200190815260200160002081905550816007600083815260200190815260200160002081905550505b6007600084815260200190815260200160002060009055600660008573ffffffffffffffffffffffffffffffffffffffff1673ffffffffffffffffffffffffffffffffffffffff16815260200190815260200160002060008381526020019081526020016000206000905550505050565b60006001600880549050612d7c9190613f69565b9050600060096000848152602001908152602001600020549050600060088381548110612dd2577f4e487b7100000000000000000000000000000000000000000000000000000000600052603260045260246000fd5b906000526020600020015490508060088381548110612e1a577f4e487b7100000000000000000000000000000000000000000000000000000000600052603260045260246000fd5b906000526020600020018190555081600960008381526020019081526020016000208190555060096000858152602001908152602001600020600090556008805480612e8f577f4e487b7100000000000000000000000000000000000000000000000000000000600052603160045260246000fd5b6001900381819060005260206000200160009055905550505050565b6000612eb683610cf4565b905081600660008573ffffffffffffffffffffffffffffffffffffffff1673ffffffffffffffffffffffffffffffffffffffff168152602001908152602001600020600083815260200190815260200160002081905550806007600084815260200190815260200160002081905550505050565b828054612f369061407d565b90600052602060002090601f016020900481019282612f585760008555612f9f565b82601f10612f7157805160ff1916838001178555612f9f565b82800160010185558215612f9f579182015b82811115612f9e578251825591602001919060010190612f83565b5b509050612fac9190613044565b5090565b6040518060800160405280600073ffffffffffffffffffffffffffffffffffffffff168152602001600073ffffffffffffffffffffffffffffffffffffffff16815260200160008152602001600081525090565b5080546130109061407d565b6000825580601f106130225750613041565b601f0160209004906000526020600020908101906130409190613044565b5b50565b5b8082111561305d576000816000905550600101613045565b5090565b600061307461306f84613e3d565b613e18565b90508281526020810184848401111561308c57600080fd5b61309784828561403b565b509392505050565b60006130b26130ad84613e6e565b613e18565b9050828152602081018484840111156130ca57600080fd5b6130d584828561403b565b509392505050565b6000813590506130ec816148f8565b92915050565b6000813590506131018161490f565b92915050565b60008135905061311681614926565b92915050565b60008151905061312b81614926565b92915050565b600082601f83011261314257600080fd5b8135613152848260208601613061565b91505092915050565b600082601f83011261316c57600080fd5b813561317c84826020860161309f565b91505092915050565b6000813590506131948161493d565b92915050565b6000602082840312156131ac57600080fd5b60006131ba848285016130dd565b91505092915050565b600080604083850312156131d657600080fd5b60006131e4858286016130dd565b92505060206131f5858286016130dd565b9150509250929050565b60008060006060848603121561321457600080fd5b6000613222868287016130dd565b9350506020613233868287016130dd565b925050604061324486828701613185565b9150509250925092565b6000806000806080858703121561326457600080fd5b6000613272878288016130dd565b9450506020613283878288016130dd565b935050604061329487828801613185565b925050606085013567ffffffffffffffff8111156132b157600080fd5b6132bd87828801613131565b91505092959194509250565b600080604083850312156132dc57600080fd5b60006132ea858286016130dd565b92505060206132fb858286016130f2565b9150509250929050565b6000806040838503121561331857600080fd5b6000613326858286016130dd565b925050602083013567ffffffffffffffff81111561334357600080fd5b61334f8582860161315b565b9150509250929050565b6000806040838503121561336c57600080fd5b600061337a858286016130dd565b925050602061338b85828601613185565b9150509250929050565b6000602082840312156133a757600080fd5b60006133b584828501613107565b91505092915050565b6000602082840312156133d057600080fd5b60006133de8482850161311c565b91505092915050565b6000602082840312156133f957600080fd5b600061340784828501613185565b91505092915050565b61341981613fc7565b82525050565b61342881613fc7565b82525050565b61343781613fd9565b82525050565b600061344882613e9f565b6134528185613eb5565b935061346281856020860161404a565b61346b8161424a565b840191505092915050565b600061348182613eaa565b61348b8185613ec6565b935061349b81856020860161404a565b6134a48161424a565b840191505092915050565b60006134ba82613eaa565b6134c48185613ed7565b93506134d481856020860161404a565b80840191505092915050565b60006134ed601f83613ec6565b91506134f882614268565b602082019050919050565b6000613510601483613ec6565b915061351b82614291565b602082019050919050565b6000613533602b83613ec6565b915061353e826142ba565b604082019050919050565b6000613556603283613ec6565b915061356182614309565b604082019050919050565b6000613579602683613ec6565b915061358482614358565b604082019050919050565b600061359c602583613ec6565b91506135a7826143a7565b604082019050919050565b60006135bf601c83613ec6565b91506135ca826143f6565b602082019050919050565b60006135e2600f83613ec6565b91506135ed8261441f565b602082019050919050565b6000613605602483613ec6565b915061361082614448565b604082019050919050565b6000613628601983613ec6565b915061363382614497565b602082019050919050565b600061364b603a83613ec6565b9150613656826144c0565b604082019050919050565b600061366e601983613ec6565b91506136798261450f565b602082019050919050565b6000613691601083613ec6565b915061369c82614538565b602082019050919050565b60006136b4601483613ec6565b91506136bf82614561565b602082019050919050565b60006136d7602983613ec6565b91506136e28261458a565b604082019050919050565b60006136fa602e83613ec6565b9150613705826145d9565b604082019050919050565b600061371d601683613ec6565b915061372882614628565b602082019050919050565b6000613740603e83613ec6565b915061374b82614651565b604082019050919050565b6000613763602083613ec6565b915061376e826146a0565b602082019050919050565b6000613786602083613ec6565b9150613791826146c9565b602082019050919050565b60006137a9602283613ec6565b91506137b4826146f2565b604082019050919050565b60006137cc601883613ec6565b91506137d782614741565b602082019050919050565b60006137ef601983613ec6565b91506137fa8261476a565b602082019050919050565b6000613812602183613ec6565b915061381d82614793565b604082019050919050565b6000613835603283613ec6565b9150613840826147e2565b604082019050919050565b6000613858602c83613ec6565b915061386382614831565b604082019050919050565b600061387b601983613ec6565b915061388682614880565b602082019050919050565b600061389e602e83613ec6565b91506138a9826148a9565b604082019050919050565b6080820160008083015490506138c9816140c9565b6138d66000860182613937565b50600183015490506138e7816140af565b6138f46020860182613410565b5060028301549050613905816140c9565b6139126040860182613937565b5060038301549050613923816140c9565b6139306060860182613937565b5050505050565b61394081614031565b82525050565b61394f81614031565b82525050565b600061396182856134af565b915061396d82846134af565b91508190509392505050565b600060208201905061398e600083018461341f565b92915050565b60006080820190506139a9600083018761341f565b6139b6602083018661341f565b6139c36040830185613946565b81810360608301526139d5818461343d565b905095945050505050565b60006020820190506139f5600083018461342e565b92915050565b60006020820190508181036000830152613a158184613476565b905092915050565b60006020820190508181036000830152613a36816134e0565b9050919050565b60006020820190508181036000830152613a5681613503565b9050919050565b60006020820190508181036000830152613a7681613526565b9050919050565b60006020820190508181036000830152613a9681613549565b9050919050565b60006020820190508181036000830152613ab68161356c565b9050919050565b60006020820190508181036000830152613ad68161358f565b9050919050565b60006020820190508181036000830152613af6816135b2565b9050919050565b60006020820190508181036000830152613b16816135d5565b9050919050565b60006020820190508181036000830152613b36816135f8565b9050919050565b60006020820190508181036000830152613b568161361b565b9050919050565b60006020820190508181036000830152613b768161363e565b9050919050565b60006020820190508181036000830152613b9681613661565b9050919050565b60006020820190508181036000830152613bb681613684565b9050919050565b60006020820190508181036000830152613bd6816136a7565b9050919050565b60006020820190508181036000830152613bf6816136ca565b9050919050565b60006020820190508181036000830152613c16816136ed565b9050919050565b60006020820190508181036000830152613c3681613710565b9050919050565b60006020820190508181036000830152613c5681613733565b9050919050565b60006020820190508181036000830152613c7681613756565b9050919050565b60006020820190508181036000830152613c9681613779565b9050919050565b60006020820190508181036000830152613cb68161379c565b9050919050565b60006020820190508181036000830152613cd6816137bf565b9050919050565b60006020820190508181036000830152613cf6816137e2565b9050919050565b60006020820190508181036000830152613d1681613805565b9050919050565b60006020820190508181036000830152613d3681613828565b9050919050565b60006020820190508181036000830152613d568161384b565b9050919050565b60006020820190508181036000830152613d768161386e565b9050919050565b60006020820190508181036000830152613d9681613891565b9050919050565b6000608082019050613db260008301846138b4565b92915050565b6000602082019050613dcd6000830184613946565b92915050565b6000608082019050613de86000830187613946565b613df5602083018661341f565b613e026040830185613946565b613e0f6060830184613946565b95945050505050565b6000613e22613e33565b9050613e2e82826140e3565b919050565b6000604051905090565b600067ffffffffffffffff821115613e5857613e5761421b565b5b613e618261424a565b9050602081019050919050565b600067ffffffffffffffff821115613e8957613e8861421b565b5b613e928261424a565b9050602081019050919050565b600081519050919050565b600081519050919050565b600082825260208201905092915050565b600082825260208201905092915050565b600081905092915050565b6000613eed82614031565b9150613ef883614031565b9250827fffffffffffffffffffffffffffffffffffffffffffffffffffffffffffffffff03821115613f2d57613f2c61418e565b5b828201905092915050565b6000613f4382614031565b9150613f4e83614031565b925082613f5e57613f5d6141bd565b5b828204905092915050565b6000613f7482614031565b9150613f7f83614031565b925082821015613f9257613f9161418e565b5b828203905092915050565b600073ffffffffffffffffffffffffffffffffffffffff82169050919050565b6000819050919050565b6000613fd282614011565b9050919050565b60008115159050919050565b60007fffffffff0000000000000000000000000000000000000000000000000000000082169050919050565b600073ffffffffffffffffffffffffffffffffffffffff82169050919050565b6000819050919050565b82818337600083830152505050565b60005b8381101561406857808201518184015260208101905061404d565b83811115614077576000848401525b50505050565b6000600282049050600182168061409557607f821691505b602082108114156140a9576140a86141ec565b5b50919050565b60006140c26140bd8361425b565b613f9d565b9050919050565b60006140dc6140d78361425b565b613fbd565b9050919050565b6140ec8261424a565b810181811067ffffffffffffffff8211171561410b5761410a61421b565b5b80604052505050565b600061411f82614031565b91507fffffffffffffffffffffffffffffffffffffffffffffffffffffffffffffffff8214156141525761415161418e565b5b600182019050919050565b600061416882614031565b915061417383614031565b925082614183576141826141bd565b5b828206905092915050565b7f4e487b7100000000000000000000000000000000000000000000000000000000600052601160045260246000fd5b7f4e487b7100000000000000000000000000000000000000000000000000000000600052601260045260246000fd5b7f4e487b7100000000000000000000000000000000000000000000000000000000600052602260045260246000fd5b7f4e487b7100000000000000000000000000000000000000000000000000000000600052604160045260246000fd5b6000601f19601f8301169050919050565b60008160001c9050919050565b7f50726f64756374206973207374696c6c20756e6465722077617272616e747900600082015250565b7f5061757361626c653a206e6f7420706175736564000000000000000000000000600082015250565b7f455243373231456e756d657261626c653a206f776e657220696e646578206f7560008201527f74206f6620626f756e6473000000000000000000000000000000000000000000602082015250565b7f4552433732313a207472616e7366657220746f206e6f6e20455243373231526560008201527f63656976657220696d706c656d656e7465720000000000000000000000000000602082015250565b7f4f776e61626c653a206e6577206f776e657220697320746865207a65726f206160008201527f6464726573730000000000000000000000000000000000000000000000000000602082015250565b7f4552433732313a207472616e736665722066726f6d20696e636f72726563742060008201527f6f776e6572000000000000000000000000000000000000000000000000000000602082015250565b7f4552433732313a20746f6b656e20616c7265616479206d696e74656400000000600082015250565b7f636865636b20736f6d657468696e670000000000000000000000000000000000600082015250565b7f4552433732313a207472616e7366657220746f20746865207a65726f2061646460008201527f7265737300000000000000000000000000000000000000000000000000000000602082015250565b7f4552433732313a20617070726f766520746f2063616c6c657200000000000000600082015250565b7f4d757374206265206f776e6572206f7220616e20617070726f766564206f706560008201527f7261746f7220746f207472616e7366657220746865204e465421000000000000602082015250565b7f596f752067657420323020666c69706b61727420636f696e7300000000000000600082015250565b7f5061757361626c653a2070617573656400000000000000000000000000000000600082015250565b7f57617272616e7479206861732065787069726564000000000000000000000000600082015250565b7f4552433732313a2061646472657373207a65726f206973206e6f74206120766160008201527f6c6964206f776e65720000000000000000000000000000000000000000000000602082015250565b7f45524337323155524953746f726167653a2055524920736574206f66206e6f6e60008201527f6578697374656e7420746f6b656e000000000000000000000000000000000000602082015250565b7f50726f6475637420756e6465722077617272616e747900000000000000000000600082015250565b7f4552433732313a20617070726f76652063616c6c6572206973206e6f7420746f60008201527f6b656e206f776e6572206e6f7220617070726f76656420666f7220616c6c0000602082015250565b7f4552433732313a206d696e7420746f20746865207a65726f2061646472657373600082015250565b7f4f776e61626c653a2063616c6c6572206973206e6f7420746865206f776e6572600082015250565b7f5265636965766572206d757374206e6f7420626520646561642061646472657360008201527f7321000000000000000000000000000000000000000000000000000000000000602082015250565b7f4552433732313a20696e76616c696420746f6b656e2049440000000000000000600082015250565b7f596f752067657420313020666c69706b61727420636f696e7300000000000000600082015250565b7f4552433732313a20617070726f76616c20746f2063757272656e74206f776e6560008201527f7200000000000000000000000000000000000000000000000000000000000000602082015250565b7f536f7272792c20796f7520617265206e6f7420656c696769626c6520666f722060008201527f616e7920666c69706b61727420636f696e730000000000000000000000000000602082015250565b7f455243373231456e756d657261626c653a20676c6f62616c20696e646578206f60008201527f7574206f6620626f756e64730000000000000000000000000000000000000000602082015250565b7f596f752067657420333020666c69706b61727420636f696e7300000000000000600082015250565b7f4552433732313a2063616c6c6572206973206e6f7420746f6b656e206f776e6560008201527f72206e6f7220617070726f766564000000000000000000000000000000000000602082015250565b61490181613fc7565b811461490c57600080fd5b50565b61491881613fd9565b811461492357600080fd5b50565b61492f81613fe5565b811461493a57600080fd5b50565b61494681614031565b811461495157600080fd5b5056fea264697066735822122096f2f2d8759d2ff648a29de305d2ab2737a3900682a11821bf3e99fdca857f6564736f6c63430008020033",
  "immutableReferences": {},
  "source": "// SPDX-License-Identifier: MIT\r\npragma solidity ^0.8.2;\r\n\r\nimport \"@openzeppelin/contracts/token/ERC721/ERC721.sol\";\r\nimport \"@openzeppelin/contracts/token/ERC721/extensions/ERC721Enumerable.sol\";\r\nimport \"@openzeppelin/contracts/token/ERC721/extensions/ERC721URIStorage.sol\";\r\nimport \"@openzeppelin/contracts/security/Pausable.sol\";\r\nimport \"@openzeppelin/contracts/access/Ownable.sol\";\r\nimport \"@openzeppelin/contracts/token/ERC721/extensions/ERC721Burnable.sol\";\r\nimport \"@openzeppelin/contracts/utils/Counters.sol\";\r\n\r\ncontract NFTwarranty is ERC721, ERC721Enumerable, ERC721URIStorage, Pausable, Ownable, ERC721Burnable {\r\n    using Counters for Counters.Counter;\r\n    Counters.Counter private _tokenIdCounter;\r\n    Counters.Counter private _transactionIdCounter;\r\n    struct NFTtoken{\r\n     uint tokenId;\r\n     address owner;\r\n     uint _start;\r\n     uint warranty_count;\r\n    }\r\n    struct transaction{\r\n        address _from;\r\n        address _to; \r\n        uint token_id;\r\n        uint t_time;\r\n    }\r\n    transaction [10]  transaction_array;\r\n    event display(NFTtoken nfts);\r\n    event print_string(string st);\r\n    NFTtoken [] public nft_array;\r\n    constructor() ERC721(\"NFT Warranty\", \"wNFT\") {\r\n       \r\n    }\r\n\r\n    function safeMint(address to) public onlyOwner {\r\n\r\n        _safeMint(to, _tokenIdCounter.current());\r\n        _tokenIdCounter.increment();\r\n    }\r\n\r\n    function pause() public onlyOwner {\r\n        _pause();\r\n    }\r\n\r\n    function unpause() public onlyOwner {\r\n        _unpause();\r\n    }\r\n\r\n    function _baseURI() internal pure override returns (string memory) {\r\n        return \"\";\r\n    }\r\n\r\n    function _beforeTokenTransfer(address from, address to, uint256 tokenId)\r\n        internal\r\n        whenNotPaused\r\n        override(ERC721, ERC721Enumerable)\r\n    {\r\n        transaction memory temp;\r\n        temp._from=from;\r\n        temp._to=to;\r\n        temp.t_time=block.timestamp;\r\n        temp.token_id=tokenId;\r\n        transaction_array[_transactionIdCounter.current()]=temp;\r\n        _transactionIdCounter.increment();\r\n        super._beforeTokenTransfer(from, to, tokenId);\r\n    }\r\n\r\n    function _burn(uint256 tokenId) internal override(ERC721, ERC721URIStorage) {\r\n        //if(checkTime(tokenId)==true)\r\n        super._burn(tokenId);\r\n       // emit display(nft_array[tokenId]);\r\n    }\r\n\r\n    function tokenURI(uint256 tokenId)\r\n        public\r\n        view\r\n        override(ERC721, ERC721URIStorage)\r\n        returns (string memory)\r\n    {\r\n        return super.tokenURI(tokenId);\r\n    }\r\n\r\n    function supportsInterface(bytes4 interfaceId)\r\n        public\r\n        view\r\n        override(ERC721, ERC721Enumerable)\r\n        returns (bool)\r\n    {\r\n        return super.supportsInterface(interfaceId);\r\n    }\r\n    \r\n    function mint(\r\n        address _to,\r\n        string memory tokenURI_\r\n    ) external onlyOwner() {\r\n        nft_array.push(NFTtoken(_tokenIdCounter.current(),_to,block.timestamp,0));\r\n        emit display(nft_array[_tokenIdCounter.current()]);\r\n        _safeMint(_to, _tokenIdCounter.current());\r\n        _setTokenURI(_tokenIdCounter.current(), tokenURI_);\r\n        _tokenIdCounter.increment();\r\n    }\r\n    function safeTransferFrom(address _from, address _to, uint256 _tokenId) public override\r\n    {\r\n        require(_to != address(0), \"Reciever must not be dead address!\");\r\n        require(_isApprovedOrOwner(_from, _tokenId), \"Must be owner or an approved operator to transfer the NFT!\");\r\n\r\n        _safeTransfer(_from, _to, _tokenId, \"\");\r\n    }\r\n    function checkTime(uint256 tokenId)public  \r\n    { \r\n        if(block.timestamp >= nft_array[tokenId]._start + 10)\r\n        {\r\n            emit print_string(\"Warranty has expired\");\r\n        }\r\n            else\r\n        {\r\n            nft_array[tokenId].warranty_count=nft_array[tokenId].warranty_count+1;\r\n            emit print_string(\"Product under warranty\");\r\n        }    \r\n        emit print_string(\"check something\");\r\n     }\r\n     function give_award(uint256 tokenId)public \r\n     {\r\n         if(block.timestamp>=nft_array[tokenId]._start+10)\r\n         {\r\n             if(nft_array[tokenId].warranty_count>=3)\r\n             {\r\n                 emit print_string(\"Sorry, you are not eligible for any flipkart coins\");\r\n             }\r\n             else if(nft_array[tokenId].warranty_count==0)\r\n             {\r\n                 emit print_string(\"You get 30 flipkart coins\");\r\n             }\r\n             else if(nft_array[tokenId].warranty_count==1)\r\n             {\r\n                 emit print_string(\"You get 20 flipkart coins\");\r\n             }\r\n             else if(nft_array[tokenId].warranty_count==2)\r\n             {\r\n                 emit print_string(\"You get 10 flipkart coins\");\r\n             }\r\n         }\r\n         else\r\n         {\r\n             emit print_string(\"Product is still under warranty\");\r\n         }\r\n     }\r\n}",
  "sourcePath": "C:\\Users\\anubh\\Desktop\\NFT_Warranty\\contracts\\NFTwarranty.sol",
  "compiler": {
    "name": "solc",
    "version": "0.8.2+commit.661d1103.Emscripten.clang"
  },
  "schemaVersion": "3.4.8",
  "updatedAt": "2022-07-31T13:28:26.448Z",
  "devdoc": {
    "kind": "dev",
    "methods": {
      "approve(address,uint256)": {
        "details": "See {IERC721-approve}."
      },
      "balanceOf(address)": {
        "details": "See {IERC721-balanceOf}."
      },
      "burn(uint256)": {
        "details": "Burns `tokenId`. See {ERC721-_burn}. Requirements: - The caller must own `tokenId` or be an approved operator."
      },
      "getApproved(uint256)": {
        "details": "See {IERC721-getApproved}."
      },
      "isApprovedForAll(address,address)": {
        "details": "See {IERC721-isApprovedForAll}."
      },
      "name()": {
        "details": "See {IERC721Metadata-name}."
      },
      "owner()": {
        "details": "Returns the address of the current owner."
      },
      "ownerOf(uint256)": {
        "details": "See {IERC721-ownerOf}."
      },
      "paused()": {
        "details": "Returns true if the contract is paused, and false otherwise."
      },
      "renounceOwnership()": {
        "details": "Leaves the contract without owner. It will not be possible to call `onlyOwner` functions anymore. Can only be called by the current owner. NOTE: Renouncing ownership will leave the contract without an owner, thereby removing any functionality that is only available to the owner."
      },
      "safeTransferFrom(address,address,uint256,bytes)": {
        "details": "See {IERC721-safeTransferFrom}."
      },
      "setApprovalForAll(address,bool)": {
        "details": "See {IERC721-setApprovalForAll}."
      },
      "symbol()": {
        "details": "See {IERC721Metadata-symbol}."
      },
      "tokenByIndex(uint256)": {
        "details": "See {IERC721Enumerable-tokenByIndex}."
      },
      "tokenOfOwnerByIndex(address,uint256)": {
        "details": "See {IERC721Enumerable-tokenOfOwnerByIndex}."
      },
      "totalSupply()": {
        "details": "See {IERC721Enumerable-totalSupply}."
      },
      "transferFrom(address,address,uint256)": {
        "details": "See {IERC721-transferFrom}."
      },
      "transferOwnership(address)": {
        "details": "Transfers ownership of the contract to a new account (`newOwner`). Can only be called by the current owner."
      }
    },
    "version": 1
  },
  "userdoc": {
    "kind": "user",
    "methods": {},
    "version": 1
  }
}